:100000000C942A000C9434000C9434000C943400AA
:100010000C9434000C9434000C9434000C94340090
:100020000C9434000C9434000C9434000C94340080
:100030000C9434000C9434000C9434000C94340070
:100040000C9434000C9434000C9434000C94340060
:100050000C94340011241FBECFE5D8E0DEBFCDBF25
:100060000E9436000C948B000C94000020E030E0DD
:100070000DC04AB381E090E0022E02C0880F991FA4
:100080000A94E2F7842B8ABB2F5F3F4F283031055B
:1000900084F320E030E016C04BB381E090E0022E04
:1000A00002C0880F991F0A94E2F7842B8BBB4FE99B
:1000B00086E891E0415080409040E1F700C00000A8
:1000C0002F5F3F4F283031053CF32FE34DE083E0B5
:1000D000215040408040E1F700C0000027E030E0C0
:1000E00017C04BB381E090E0022E02C0880F991F29
:1000F0000A94E2F7809584238BBB9FE946E881E070
:10010000915040408040E1F700C00000215031098B
:0A01100033233CF7BECFF894FFCF75
:00000001FF
