S018000041544D45474133325F447269766572732E73726563BA
S11300000C942A000C9447000C9447000C9447006D
S11300100C9447000C9447000C9447000C94470040
S11300200C9447000C9447000C9447000C94470030
S11300300C9447000C9460020C9487020C94AE025A
S11300400C9447000C9447000C9447000C94470010
S11300500C94470011241FBECFE5D8E0DEBFCDBF0E
S113006010E0A0E6B0E0E2EFF5E002C005900D92EA
S1130070AA36B107D9F720E0AAE6B0E001C01D9284
S1130080A337B207E1F70E94E5000C94F7020C9441
S1130090000088B3886088BB83ED90E30197F1F793
S11300A000C0000088B3877F88BB08958AB31ABA5A
S11300B088B3846088BB88B38D7F88BB0E94490065
S11300C08AB38FEF8ABB88B38B7F88BB0895CF93A5
S11300D0C82F0E945600CBBB88B3897F88BB89EFA9
S11300E090E00197F1F700C000000E944900CF9111
S11300F0089581E00E9467000895CF93DF93C82F8D
S1130100D62F813031F4603120F480E8860F0E94CC
S11301106700C23031F4D03120F480EC8D0F0E949E
S11301206700DF91CF91089587E893E10197F1F794
S113013000C0000087B38E6087BB88B3817F88BB13
S11301408FEF8ABB85EA9EE00197F1F700C00000BB
S11301500E94790088E30E94670086E00E9467009D
S113016080E80E9467008FE00E9467000895CF93A3
S1130170C82F0E945600CBBB88B38B7F88BB88B343
S1130180826088BB89EF90E00197F1F700C000001E
S11301900E944900CF91089561E08CE690E00E94AE
S11301A0580260E082E00E947D0080916C000E9411
S11301B0B7002FE78AE196E0215080409040E1F7B4
S11301C000C000000E9479000895CF93DF93CDB75B
S11301D0DEB72B970FB6F894DEBF0FBECDBF0E94DB
S11301E0940080E895E29F838E8388E1898381E08F
S11301F08B8383E08C831D82188680E889878CEC4E
S113020090E09B878A87CE0101960E944A0100E014
S113021010E0F801E05AFF4F80810E94B7000F5FA1
S11302201F4F0A30110511F400E010E02FE38DE0B8
S113023093E0215080409040E1F700C000000E940C
S11302407900E7CFFC01DB0111968C9111978111A4
S11302500BC08C9180959181892381838C918095A9
S11302609281892382830895813051F48C91809501
S11302709181892381838C919281892B8283089532
S11302808C919181892B81838C9180959281892392
S1130290828308950F931F93CF93DF9300D0CDB73C
S11302A0DEB78C0190936B0080936A00FC0182811D
S11302B09EEF980F9230F0F480B5806880BD90B5C1
S11302C08181892B80BD80B5806480BD2581368184
S11302D0C901A0E0B0E09C01AD01220F331F441F0F
S11302E0551F60E074E284EF90E00E94D502215033
S11302F0310951C0811126C080B5806880BD80B5A8
S11303008F7B80BD8BB182608BB9F80125813681EA
S1130310C901A0E0B0E0880F991FAA1FBB1F880F76
S1130320991FAA1FBB1F9C01AD01220F331F441F3D
S1130330551F60E074E284EF90E00E94D5022150E2
S1130340310929C080B5806880BD80B58F7B80BDB0
S11303508BB18D7F8BB9F80125813681C901A0E06D
S1130360B0E0880F991FAA1FBB1F880F991FAA1FEF
S1130370BB1F9C01AD01220F331F441F551F220FC9
S1130380331F441F551F60E074E284EF90E00E9425
S1130390D5022150310929B980B5806880BDF801A2
S11303A08381813069F028F08230A1F08330E1F05C
S11303B021C08AB18B7F8AB980B5897F80BD1AC07C
S11303C08AB18B7F8AB980B58B7F80BD80B582600E
S11303D080BD10C08AB18B7F8AB980B58D7F80BD06
S11303E080B5846080BD06C08AB18B7F8AB980B530
S11303F0866080BD80B5806880BD90B5F801848139
S1130400892B80BD80B5806880BD90B58781892B9C
S113041080BD8085882329F19AB1892B8AB98FB749
S113042080688FBF80858034A9F0803819F08032CD
S1130430C1F408C0F8018185928590936E00809381
S11304406D000FC0F80181859285909370008093B0
S11304506F0007C0F80181859285909372008093A4
S11304607100F80180819AB1892B8AB98281823026
S113047061F481E0898382E08A83BE016F5F7F4FEC
S113048086E390E00E9422010CC0833051F481E0A5
S113049089838A83BE016F5F7F4F86E390E00E9469
S11304A022010F900F90DF91CF911F910F9108952A
S11304B0611102C05F9BFECF2CB1FC012083089523
S11304C01F920F920FB60F9211242F933F934F93C5
S11304D05F936F937F938F939F93AF93BF93EF93A8
S11304E0FF93E0916D00F0916E000995FF91EF91FB
S11304F0BF91AF919F918F917F916F915F914F9138
S11305003F912F910F900FBE0F901F9018951F923F
S11305100F920FB60F9211242F933F934F935F9333
S11305206F937F938F939F93AF93BF93EF93FF93B7
S1130530E0916F00F09170000995FF91EF91BF91E8
S1130540AF919F918F917F916F915F914F913F9167
S11305502F910F900FBE0F901F9018951F920F921E
S11305600FB60F9211242F933F934F935F936F9382
S11305707F938F939F93AF93BF93EF93FF93E091F8
S11305807100F09172000995FF91EF91BF91AF91C5
S11305909F918F917F916F915F914F913F912F9197
S11305A00F900FBE0F901F901895A1E21A2EAA1B50
S11305B0BB1BFD010DC0AA1FBB1FEE1FFF1FA2170F
S11305C0B307E407F50720F0A21BB30BE40BF50B0C
S11305D0661F771F881F991F1A9469F76095709595
S11305E0809590959B01AC01BD01CF010895F894CD
S10505F0FFCF37
S10D05F230313233343536373839EE
S9030000FC
