S00D00005461736B322E7372656352
S11300000C942A000C9434000C9434000C943400A6
S11300100C9434000C9434000C9434000C9434008C
S11300200C9434000C9434000C9434000C9434007C
S11300300C9434000C9434000C9434000C9434006C
S11300400C9434000C9434000C9434000C9434005C
S11300500C94340011241FBECFE5D8E0DEBFCDBF21
S11300600E9436000C949D000C94000020E030E0C7
S11300700DC04AB381E090E0022E02C0880F991FA0
S11300800A94E2F7842B8ABB2F5F3F4F2830310557
S113009084F384B38E7F84BB85B3816085BB80E0A9
S11300A090E09899FECF009781F42BB32F772BBB68
S11300B04BB321E030E0082E02C0220F331F0A9414
S11300C0E2F7242B2BBB019635C087309105C9F488
S11300D06BB321E030E0A901082E02C0440F551F84
S11300E00A94E2F7462B4BBB4BB3019702C0220F95
S11300F0331F8A95E2F7209524232BBB80E090E000
S113010019C06BB321E030E0A901082E02C0440FEE
S1130110551F0A94E2F7462B4BBB4BB3BC0161500D
S1130120710902C0220F331F6A95E2F72095242338
S11101302BBB0196989BFECFB4CFF894FFCF63
S9030000FC
