S015000041746D65676133325F554152542E73726563C0
S11300000C942A000C943F000C943F000C943F0085
S11300100C943F000C943F000C943F000C943F0060
S11300200C943F000C943F000C943F000C943F0050
S11300300C943F000C943F000C943F000C943F0040
S11300400C943F000C943F000C943F000C943F0030
S11300500C943F0011241FBECFE5D8E0DEBFCDBF16
S113006010E0A0E6B0E0E0ECF2E002C005900D92F2
S1130070A837B107D9F70E94ED000C945E010C94E7
S1130080000088B3886088BB83ED90E30197F1F7A3
S113009000C0000088B3877F88BB08958AB31ABA6A
S11300A088B3846088BB88B38D7F88BB0E9441007D
S11300B08AB38FEF8ABB88B38B7F88BB0895CF93B5
S11300C0C82F0E944E00CBBB88B3897F88BB89EFC1
S11300D090E00197F1F700C000000E944100CF9129
S11300E0089581E00E945F000895CF93DF93C82FA5
S11300F0D62F813031F4603120F480E8860F0E94DD
S11301005F00C23031F4D03120F480EC8D0F0E94B6
S11301105F00DF91CF91089587E893E10197F1F7AC
S113012000C0000087B38E6087BB88B3817F88BB23
S11301308FEF8ABB85EA9EE00197F1F700C00000CB
S11301400E94710088E30E945F0086E00E945F00C5
S113015080E80E945F008FE00E945F000895CF93C3
S1130160C82F0E944E00CBBB88B38B7F88BB88B35B
S1130170826088BB89EF90E00197F1F700C000002E
S11301800E944100CF9108950F931F93CF93DF9363
S11301908C01C0E0D0E018C021960F5F1F4F0E9471
S11301A0AF00C031D10529F460E082E00E947500FF
S11301B00BC0C032D10541F40E94710060E081E0BF
S11301C00E947500C0E0D0E0F80180818111E4CF85
S11301D0DF91CF911F910F910895CF93DF93CDB706
S11301E0DEB7C85CD1090FB6F894DEBF0FBECDBF31
S11301F00E948C000E9471002FE38DE093E0215057
S113020080409040E1F700C0000080E690E00E944A
S1130210C4000E941C0160E082E00E9475008AE62E
S113022090E00E943C01CE0101960E944C01CE0157
S113023001960E94C400F7CF8BB18D7F8BB987E6FE
S113024089B980B5886080BD80B5826080BD80B585
S1130250846080BD8AB18B7F8AB98AB188608AB98B
S11302608AB180618AB908955D9BFECF8CB90895E7
S11302705F9BFECF8CB10895CF93DF93EC0103C055
S11302800E943401219688818111FACF8DE00E9469
S11302903401DF91CF910895CF93DF93EC010E9455
S11302A03801888304C021960E943801888388819C
S11302B08D30C9F71882DF91CF910895F894FFCF5C
S11302C0554152542074657374004D6F68616D65B7
S10B02D0642073616D69720082
S9030000FC
