:020000040800F2
:1000000000280020410F0008910F0008910F000800
:10001000910F0008910F0008910F000800000000E8
:10002000000000000000000000000000910F000828
:10003000910F000800000000910F0008910F0008C8
:10004000910F0008910F0008910F0008910F000810
:10005000910F0008910F0008710100089501000838
:10006000B9010008DD01000801020008910F000835
:10007000910F0008910F0008910F0008910F0008E0
:10008000910F0008910F0008910F0008910F0008D0
:10009000910F0008910F0008910F00082502000839
:1000A000910F0008910F0008910F0008910F0008B0
:1000B000910F0008910F0008910F0008910F0008A0
:1000C000910F0008910F0008910F000875090008B2
:1000D000D1090008D10D0008E50D0008F90D000850
:1000E000CD020008910F000800000000910F0008E9
:1000F000910F0008910F0008910F0008910F000860
:10010000910F0008910F0008910F0008910F00084F
:10011000910F0008910F0008910F0008910F00083F
:10012000910F0008910F0008910F0008910F00082F
:1001300010B5054C237833B9044B13B10448AFF321
:1001400000800123237010BD00000020000000008B
:10015000DC0F000808B5034B1BB103490348AFF39C
:10016000008008BD0000000004000020DC0F000833
:1001700080B500AF054B5B69044A43F0010353614E
:10018000034B1B68984700BF80BD00BF00040140BF
:100190003000002080B500AF054B5B69044A43F096
:1001A00002035361034B5B68984700BF80BD00BFEB
:1001B000000401403000002080B500AF054B5B69B2
:1001C000044A43F004035361034B9B68984700BF04
:1001D00080BD00BF000401403000002080B500AFAA
:1001E000054B5B69044A43F008035361034BDB682A
:1001F000984700BF80BD00BF0004014030000020D0
:1002000080B500AF054B5B69044A43F010035361AE
:10021000034B1B69984700BF80BD00BF000401402D
:100220003000002080B500AF264B5B6903F020034F
:10023000002B08D0234B5B69224A43F02003536113
:10024000214B5B6998471F4B5B6903F04003002B10
:1002500008D01C4B5B691B4A43F0400353611A4BA7
:100260009B699847174B5B6903F08003002B08D00C
:10027000144B5B69134A43F080035361124BDB69F3
:100280009847104B5B6903F48073002B08D00D4B2B
:100290005B690C4A43F4807353610B4B1B6A9847AC
:1002A000084B5B6903F40073002B08D0054B5B69B6
:1002B000044A43F400735361034B5B6A984700BFE1
:1002C00080BD00BF000401403000002080B500AFB9
:1002D0002D4B5B6903F48063002B08D02A4B5B69CC
:1002E000294A43F480635361284B9B6A9847264B05
:1002F0005B6903F40063002B08D0234B5B69224A3F
:1003000043F400635361214BDB6A98471E4B5B69E2
:1003100003F48053002B08D01B4B5B691A4A43F44B
:1003200080535361194B1B6B9847174B5B6903F460
:100330000053002B08D0144B5B69134A43F400535D
:100340005361124B5B6B98470F4B5B6903F480431F
:10035000002B08D00C4B5B690B4A43F4804353617C
:100360000A4B9B6B9847084B5B6903F40043002BD7
:1003700008D0054B5B69044A43F400435361034BC7
:10038000DB6B984700BF80BD0004014030000020B7
:1003900080B483B000AF0346FB80FB88802B42D043
:1003A000802B11DC082B36D0082B06DC022B2ED03C
:1003B000042B2ED0012B28D047E0202B2FD0402B10
:1003C0002FD0102B29D040E0B3F5006F33D0B3F518
:1003D000006F09DCB3F5007F29D0B3F5806F28D01A
:1003E000B3F5807F21D030E0B3F5005F27D0B3F5BF
:1003F000005F03DCB3F5805F1FD026E0B3F5804FCC
:100400001FD0B3F5004F1ED01FE000231EE00423D1
:100410001CE008231AE00C2318E0102316E0142334
:1004200014E0182312E01C2310E000230EE0042344
:100430000CE008230AE00C2308E0102306E0142354
:1004400004E0182302E01C2300E0002318460C37C8
:10045000BD4680BC704780B586B000AF786039601B
:100460003B681B88FF2B01D87B6801E07B68043365
:100470003B610023FB753B681B881846FFF788FF2C
:100480000346FB733B691B68FA7B0F2101FA02F2FA
:10049000D2431A403B691A603B689B78072B0BD00C
:1004A0003B689B78062B07D03B689B78052B03D0D5
:1004B0003B689B78042B0ED13B689B78043B9B00E8
:1004C0005AB23B68DB785BB213435BB2DBB203F03A
:1004D0000F03FB7531E03B689B78002B03D03B6832
:1004E0009B78012B07D13B689B789B00DBB203F024
:1004F0000F03FB7521E03B689B78082B07D13B6815
:100500009B789B00DBB203F00F03FB7515E008231B
:10051000FB753B689B78022B07D17B68DB683A68E8
:1005200012881A437B68DA6007E07B68DB683A6808
:100530001288D2431A407B68DA603B691B68F97DF8
:10054000FA7B01FA02F21A433B691A6000BF1837BE
:10055000BD4680BD80B483B000AF78600B467B8021
:1005600013467B707B78002B03D07A887B681A61F6
:1005700002E07A887B685A6100BF0C37BD4680BCB8
:100580007047000080B400AF0A4B5B689B0803F023
:100590000303012B06D0012B02D3022B04D005E06C
:1005A000054B03E0054B01E0044BFFE71846BD4651
:1005B00080BC70470010024000127A000024F40052
:1005C00080B500AFFFF7DEFF0146054B5B681B09F6
:1005D00003F00703034AD35C21FA03F3184680BDF6
:1005E00000100240FC0F000880B500AFFFF7E8FFE5
:1005F0000146054B5B681B0A03F00F03034AD35CFB
:1006000021FA03F3184680BD00100240F40F0008E1
:1006100080B500AFFFF7D4FF0146054B5B68DB0AEE
:1006200003F00703034AD35C21FA03F3184680BDA5
:1006300000100240F40F000880B485B000AF78606D
:1006400039600023FB810023BB817B68374A9342DA
:1006500009D1374A3B681360364B9B69354A43F4EE
:100660008053936108E0324A3B685360314BDB6949
:10067000304A43F48043D3614023FB813B681A88AE
:10068000FB891343FB813B685A88FB891343FB8139
:100690003B689A88FB891343FB813B68DA88FB89B6
:1006A0001343FB813B681A89FB891343FB813B6839
:1006B0005A89FB891343FB813B68DA89FB89134321
:1006C000FB813B689B89042B05D13B689A89BB89D8
:1006D0001343BB8104E03B689A89FB891343FB8188
:1006E0003B681B8A002B15D03B681A8ABB891343D1
:1006F000BB817B680D4A934206D10F4B1B680E4AA3
:1007000043F00803136005E00B4B1B680A4A43F0F3
:1007100010031360FA897B681A60BA897B685A6093
:1007200000BF1437BD4680BC704700BF0030014099
:100730001C0000200010024004E100E080B485B0FD
:1007400000AFF860B9601346FB71FB79002B06D14E
:1007500000BFFB689B6803F00203002BF9D0BB6865
:100760001B881A46FB68DA60FB79002B06D100BFB4
:10077000FB689B6803F00103002BF9D0FB68DB6882
:100780009AB2BB681A8000BF1437BD4680BC704760
:1007900080B584B000AF78600023FB607B68714A4D
:1007A000934269D1704B1B68FB60FB681B88042B6C
:1007B00033D1FB689B89042B0CD110233B8106238A
:1007C000BB720123FB7207F1080319466748FFF764
:1007D00042FE00BF20233B810623BB720123FB7234
:1007E00007F1080319466148FFF735FE40233B81B6
:1007F0000123BB7207F1080319465C48FFF72BFE83
:1008000080233B810623BB720123FB7207F108039F
:1008100019465648FFF71FFE9FE0FB689B89002B97
:1008200009D110233B810123BB7207F1080319464C
:100830004E48FFF710FE20233B810123BB7207F1D6
:10084000080319464948FFF706FE40233B8106236B
:10085000BB720123FB7207F1080319464348FFF7F7
:10086000FAFD80233B810123BB7207F1080319467F
:100870003E48FFF7F0FD70E03B4B5B68FB60FB68B8
:100880001B88042B37D1FB689B89042B0DD14FF4B7
:1008900080533B810623BB720123FB7207F10803DF
:1008A00019463348FFF7D7FD00BF4FF400533B8193
:1008B0000623BB720123FB7207F1080319462C487B
:1008C000FFF7C9FD4FF480433B810123BB7207F161
:1008D000080319462648FFF7BEFD4FF400433B814D
:1008E0000623BB720123FB7207F108031946204857
:1008F000FFF7B1FD31E0FB689B89002B0AD14FF473
:1009000080533B810123BB7207F108031946184845
:10091000FFF7A1FD4FF400533B810123BB7207F1A8
:10092000080319461248FFF796FD4FF480433B81B8
:100930000623BB720123FB7207F1080319460C481A
:10094000FFF789FD4FF400433B810123BB7207F1A0
:10095000080319460648FFF77EFD00BF1037BD4665
:1009600080BD00BF003001401C0000200008014095
:10097000000C014080B582B000AF134B9B685B0850
:1009800003F00103DAB23B7962F300033B710E4BD3
:100990009B6803F00103DAB23B7962F341033B71D8
:1009A000094B9B681B0903F00103DAB23B7962F340
:1009B00082033B71054B1B685B693879984700BF20
:1009C0000837BD4680BD00BF003001401C0000203C
:1009D00080B582B000AF134B9B685B0803F0010346
:1009E000DAB23B7962F300033B710E4B9B6803F074
:1009F0000103DAB23B7962F341033B71094B9B6817
:100A00001B0903F00103DAB23B7962F382033B7105
:100A1000054B5B685B693879984700BF0837BD466E
:100A200080BD00BF003001401C00002080B584B0B4
:100A300000AF786039607B68554A934209D1554AC6
:100A40003B681360544B9B69534A43F48043936162
:100A500016E07B68514A934209D14E4A3B68536085
:100A60004D4BDB694C4A43F40033D36108E0494AFB
:100A70003B689360484BDB69474A43F48023D3616A
:100A80007B68DB6843F400527B68DA607B68DB6874
:100A90003A6812781A437B68DA607B68DB683A68E8
:100AA000127A1A437B68DA607B68DB683A68527AAC
:100AB0001A437B68DA607B681B693A68927A1A434A
:100AC0007B681A617B685B693A68D27A1A437B68F3
:100AD0005A617B682E4A934203D1FFF799FDF86073
:100AE00002E0FFF781FDF8603B685B681B01FA6874
:100AF000B2FBF3F31901FA6813469B0013449A0002
:100B00001A443B685B689B00B2FBF3F23B685B688E
:100B10001B01F868B0FBF3F3642000FB03F3D31A66
:100B20001B011F4AA2FB03235B0903F00F030B43C6
:100B3000BB607B68BA689A603B681B7B002B22D045
:100B40007B68DB683A68127B1A437B68DA607B68F3
:100B50000F4A934206D1134B1B68124A43F02003FD
:100B6000136010E07B680D4A934206D10D4B1B6861
:100B70000C4A43F04003136005E00A4B1B68094A26
:100B800043F08003136000BF1037BD4680BD00BF37
:100B900000380140240000200010024000440040C2
:100BA0001F85EB5104E100E080B487B000AFF8602E
:100BB000B9601346FB7100237B61FB68184A9342BE
:100BC00003D1184B1B687B610AE0FB68164A93420D
:100BD00003D1144B5B687B6102E0124B9B687B6125
:100BE000FB79002B06D100BFFB681B6803F0800374
:100BF000002BF9D07B691B7A002B05D1BB681B88C1
:100C0000DAB2FB685A6005E0BB681B88C3F30802D0
:100C1000FB685A6000BF1C37BD4680BC704700BFF0
:100C200000380140240000200044004080B487B018
:100C300000AFF860B9601346FB7100237B61FB686D
:100C4000244A934203D1244B1B687B610AE0FB6872
:100C5000224A934203D1204B5B687B6102E01E4B2A
:100C60009B687B61FB79002B06D100BFFB681B688A
:100C700003F02003002BF9D07B691B7A002B12D1E3
:100C80007B695B7A002B05D1FB685B689AB2BB6815
:100C90001A8019E0FB685B689BB203F07F039AB28D
:100CA000BB681A8010E07B695B7A002B05D1FB687A
:100CB0005B689AB2BB681A8006E0FB685B689BB20F
:100CC000DBB29AB2BB681A8000BF1C37BD4680BC3D
:100CD000704700BF0038014024000020004400405D
:100CE00080B584B000AF78600023FB607B68334A36
:100CF000934203D1324B1B68FB600AE07B68314AA8
:100D0000934203D12E4B5B68FB6002E02C4B9B6847
:100D1000FB607B68294A934218D14FF400733B81F2
:100D20000623BB720123FB7207F10803194626480C
:100D3000FFF791FB4FF480633B810823BB7207F1FF
:100D4000080319462048FFF786FB32E07B681D4AFE
:100D5000934216D104233B810623BB720123FB720D
:100D600007F1080319461848FFF775FB08233B8174
:100D70000823BB7207F1080319461348FFF76BFB02
:100D800017E04FF480633B810623BB720123FB72A3
:100D900007F1080319460D48FFF75DFB4FF40063A8
:100DA0003B810823BB7207F1080319460748FFF788
:100DB00052FB00BF1037BD4680BD00BF0038014068
:100DC000240000200044004000080140000C0140C5
:100DD00080B500AF024B1B681B69984700BF80BD00
:100DE0002400002080B500AF024B5B681B69984768
:100DF00000BF80BD2400002080B500AF024B9B687F
:100E00001B69984700BF80BD2400002080B400AF5C
:100E10000A4B9B69094A43F004039361074B9B69A2
:100E2000064A43F008039361044B9B69034A43F06D
:100E30000103936100BFBD4680BC704700100240B3
:100E400080B500AF01220D490D48FFF7EFFE0022EB
:100E50000A490B48FFF7A8FE002210210948FFF7B6
:100E600079FB002205490848FFF768FC01221021A0
:100E70000448FFF76FFB00BF80BD00BF6C0000207F
:100E800000380140000801400030014080B58CB0BE
:100E900000AFFFF7BBFF4FF4E1333B62002387F85D
:100EA0002730202387F82830214BFB62002387F866
:100EB0002530002387F82430002387F826300C23C0
:100EC0003B7707F11C0319461A48FFF7AFFD194895
:100ED000FFF706FF0123FB810223BB8100233B8137
:100EE00000237B8110237B820023FB800423BB80B3
:100EF0000023BB824FF440733B820023BB6110236D
:100F00003B800423BB700123FB703B4619460A4813
:100F1000FFF7A1FA012210210748FFF71BFB3B1D39
:100F200019460648FFF788FB0448FFF731FCFEE747
:100F3000410E000800380140000801400030014027
:100F40000D488546AFF300800C480D490D4A00233B
:100F500002E0D458C4500433C4188C42F9D30A4A6E
:100F60000A4C002301E013600432A242FBD300F0DC
:100F700011F8FFF78BFFFEE700280020000000209B
:100F80000000002014100008000000207000002065
:100F9000FEE7000070B500250C4E0D4CA41BA410FC
:100FA000A54209D100F01AF800250A4E0A4CA41BEC
:100FB000A410A54205D170BD56F8253098470135DB
:100FC000EEE756F8253098470135F2E70C10000897
:100FD0000C1000080C10000810100008F8B500BF35
:100FE000F8BC08BC9E467047F8B500BFF8BC08BC0A
:040FF0009E46704762
:100FF40000000000010203040000000000000000E3
:081004000102030406070809BC
:04100C005501000882
:0410100031010008A2
:0400000508000F419F
:00000001FF
