:100000000C942A000C943F000C943F000C943F0089
:100010000C943F000C943F000C943F000C943F0064
:100020000C943F000C943F000C943F000C943F0054
:100030000C943F000C943F000C943F000C943F0044
:100040000C943F000C943F000C943F000C943F0034
:100050000C943F0011241FBECFE5D8E0DEBFCDBF1A
:1000600010E0A0E6B0E0EAECF0E002C005900D92EE
:10007000A036B107D9F70E9459000C9463000C9484
:10008000000082B9089584EC86BF06B607FEFDCF56
:1000900001C081B181B18036E1F784EC86BF06B63C
:1000A00007FEFDCF01C081B181B18038E1F783B196
:1000B00008958FEF8ABB80ED0E94410081E00E948D
:0A00C00043008BBBFBCFF894FFCF89
:00000001FF
