S018000041544D45474133325F447269766572732E73726563BA
S11300000C942A000C9447000C9447000C9447006D
S11300100C9447000C9447000C9447000C94470040
S11300200C9447000C9447000C9447000C94470030
S11300300C9447000C9447000C9447000C94470020
S11300400C9447000C9447000C9447000C94470010
S11300500C94470011241FBECFE5D8E0DEBFCDBF0E
S113006010E0A0E6B0E0ECE4F5E002C005900D92EB
S1130070A837B107D9F720E0A8E7B0E001C01D9286
S1130080AA37B207E1F70E94F5000C94A4020C947D
S1130090000088B3886088BB83ED90E30197F1F793
S11300A000C0000088B3877F88BB08958AB31ABA5A
S11300B088B3846088BB88B38D7F88BB0E94490065
S11300C08AB38FEF8ABB88B38B7F88BB0895CF93A5
S11300D0C82F0E945600CBBB88B3897F88BB89EFA9
S11300E090E00197F1F700C000000E944900CF9111
S11300F0089581E00E9467000895CF93DF93C82F8D
S1130100D62F813031F4603120F480E8860F0E94CC
S11301106700C23031F4D03120F480EC8D0F0E949E
S11301206700DF91CF91089587E893E10197F1F794
S113013000C0000087B38E6087BB88B3817F88BB13
S11301408FEF8ABB85EA9EE00197F1F700C00000BB
S11301500E94790088E30E94670086E00E9467009D
S113016080E80E9467008FE00E9467000895CF93A3
S1130170C82F0E945600CBBB88B38B7F88BB88B343
S1130180826088BB89EF90E00197F1F700C000001E
S11301900E944900CF9108950F931F93CF93DF934B
S11301A08C01C0E0D0E018C021960F5F1F4F0E9461
S11301B0B700C031D10529F460E082E00E947D00DF
S11301C00BC0C032D10541F40E94790060E081E0A7
S11301D00E947D00C0E0D0E0F80180818111E4CF6D
S11301E0DF91CF911F910F910895CF93DF93CDB7F6
S11301F0DEB7C25DD1090FB6F894DEBF0FBECDBF26
S11302000E9494000E94790080E690E00E94CC0055
S113021080E895E2C253DF4F99838883CE5CD04057
S113022088E1C753DF4F8883C95CD04081E0C55360
S1130230DF4F8883CB5CD04083E0C453DF4F888397
S1130240CC5CD040C353DF4F1882CD5CD040C05348
S1130250DF4F1882C05DD040CE0187539F4F0E946C
S11302606A018AE690E00E945D0260E082E00E94FA
S11302707D00CE0101960E946F02CE0101960E947C
S1130280CC00F7CFFC01DB0111968C911197811101
S11302900BC08C9180959181892381838C91809569
S11302A09281892382830895813051F48C918095C1
S11302B09181892381838C919281892B82830895F2
S11302C08C919181892B81838C9180959281892352
S11302D0828308950F931F93CF93DF9300D0CDB7FC
S11302E0DEB78C019093790080937800FC018281C1
S11302F09EEF980F9230F0F480B5806880BD90B581
S11303008181892B80BD80B5806480BD2581368143
S1130310C901A0E0B0E09C01AD01220F331F441FCE
S1130320551F60E074E284EF90E00E948202215045
S1130330310951C0811126C080B5806880BD80B567
S11303408F7B80BD8BB182608BB9F80125813681AA
S1130350C901A0E0B0E0880F991FAA1FBB1F880F36
S1130360991FAA1FBB1F9C01AD01220F331F441FFD
S1130370551F60E074E284EF90E00E9482022150F5
S1130380310929C080B5806880BD80B58F7B80BD70
S11303908BB18D7F8BB9F80125813681C901A0E02D
S11303A0B0E0880F991FAA1FBB1F880F991FAA1FAF
S11303B0BB1F9C01AD01220F331F441F551F220F89
S11303C0331F441F551F60E074E284EF90E00E94E5
S11303D082022150310929B980B5806880BDF801B5
S11303E08381813069F028F08230A1F08330E1F01C
S11303F021C08AB18B7F8AB980B5897F80BD1AC03C
S11304008AB18B7F8AB980B58B7F80BD80B58260CD
S113041080BD10C08AB18B7F8AB980B58D7F80BDC5
S113042080B5846080BD06C08AB18B7F8AB980B5EF
S1130430866080BD80B5806880BD90B5F8018481F8
S1130440892B80BD80B5806880BD90B58781892B5C
S113045080BD80819AB1892B8AB98281823061F40E
S113046081E0898382E08A83BE016F5F7F4F86E3E8
S113047090E00E9442010CC0833051F481E08983F2
S11304808A83BE016F5F7F4F86E390E00E94420142
S11304900F900F90DF91CF911F910F9108956111EB
S11304A002C05F9BFECF2CB1FC0120830895611133
S11304B002C05D9BFECF8CB90895CF93DF93EC010E
S11304C004C060E00E945702219688818111F9CF0F
S11304D060E08DE00E945702DF91CF910895CF93A1
S11304E0DF93EC0160E00E944F0205C0219660E0BA
S11304F0CE010E944F0288818D30C1F71882DF91AE
S1130500CF910895A1E21A2EAA1BBB1BFD010DC0B9
S1130510AA1FBB1FEE1FFF1FA217B307E407F507AF
S113052020F0A21BB30BE40BF50B661F771F881F8B
S1130530991F1A9469F760957095809590959B0121
S10F0540AC01BD01CF010895F894FFCF79
S113054C554152542074657374004D6F68616D6528
S10B055C642053616D69720013
S9030000FC
