S020000041746D6567615F4932435F4472697665725F4D61737465722E7372656302
S11300000C942A000C943F000C943F000C943F0085
S11300100C943F000C943F000C943F000C943F0060
S11300200C943F000C943F000C943F000C943F0050
S11300300C943F000C943F000C943F000C943F0040
S11300400C943F000C943F000C943F000C943F0030
S11300500C943F0011241FBECFE5D8E0DEBFCDBF16
S113006010E0A0E6B0E0EEE5F1E002C005900D92EC
S1130070A036B107D9F70E9467000C94AD000C9428
S113008000009B01AC0160E072E18AE790E00E940D
S11300908B00DA01C9014097A109B109B695A7956A
S11300A09795879580B9089584EA86BF06B607FEBA
S11300B0FDCF81B18830E9F7089583B984E886BF1C
S11300C006B607FEFDCF089584E986BF089568E467
S11300D070E080E090E00E944100C0E02FE986E8F3
S11300E091E0215080409040E1F700C000000E9460
S11300F0540080ED0E945D0081B18831E9F7D1E0C0
S1130100DC0F8C2F0E945D0081B18832E9F70E94D8
S11301106400CD2FE3CFA1E21A2EAA1BBB1BFD0165
S11301200DC0AA1FBB1FEE1FFF1FA217B307E407D2
S1130130F50720F0A21BB30BE40BF50B661F771F2A
S1130140881F991F1A9469F760957095809590950A
S11101509B01AC01BD01CF010895F894FFCFCF
S9030000FC
