S01200005350495F6D61737465722E737265633B
S11300000C942A000C9434000C9434000C943400A6
S11300100C9434000C9434000C9434000C9434008C
S11300200C9434000C9434000C9434000C9434007C
S11300300C9434000C9434000C9434000C9434006C
S11300400C9434000C9434000C9434000C9434005C
S11300500C94340011241FBECFE5D8E0DEBFCDBF21
S11300600E9444000C9461000C94000087B3806BE0
S113007087BB87B38F7B87BB81E58DB908958FB923
S1130080779BFECF8FB108958FEF8ABB0E94360015
S11300902FE38DE093E0215080409040E1F700C0D1
S11300A00000C0E02FE38DE093E0215080409040B9
S11300B0E1F700C000008C2F0E943F008BBBCF5F94
S10900C0F1CFF894FFCF1C
S9030000FC
