:100000000C942A000C9447000C9447000C94470071
:100010000C9447000C9447000C9447000C94470044
:100020000C9447000C9447000C9447000C94470034
:100030000C94A6010C94E4020C940B030C94320370
:100040000C9447000C9447000C9447000C94470014
:100050000C94470011241FBECFE5D8E0DEBFCDBF12
:1000600010E0A0E6B0E0EAEFF6E002C005900D92E5
:10007000A036B107D9F720E0A0E6B0E001C01D929C
:10008000AB36B207E1F70E94AB000C947B030C94F3
:10009000000088B3886088BB83ED90E30197F1F797
:1000A00000C0000088B3877F88BB08958AB31ABA5E
:1000B00088B3846088BB88B38D7F88BB0E94490069
:1000C0008AB38FEF8ABB88B38B7F88BB0895CF93A9
:1000D000C82F0E945600CBBB88B3897F88BB89EFAD
:1000E00090E00197F1F700C000000E944900CF9115
:1000F000089581E00E946700089587E893E10197E1
:10010000F1F700C0000087B38E6087BB88B3817FA2
:1001100088BB8FEF8ABB85EA9EE00197F1F700C0AC
:1001200000000E94790088E30E94670086E00E9438
:10013000670080E80E9467008FE00E9467000895D2
:1001400060E084E690E00E946B0160E084E690E06D
:100150000E94DE020895CF93DF93CDB7DEB7649798
:100160000FB6F894DEBF0FBECDBF0E947D0080E8C1
:1001700095E29F838E8388E1898381E08B8383E08E
:100180008C831D82188619861B861A86CE010196DD
:100190000E94D0018CEF8D878FED898B80E88A8B50
:1001A00080EA90E09C8B8B8B8BEF888B87EF8F871F
:1001B0008EEF8E878FEE8C870E947301CE010C9696
:1001C0000E941801FFCFFC01DB0111968C91119761
:1001D00081110BC08C9180959181892381838C91B1
:1001E00080959281892382830895813051F48C9186
:1001F00080959181892381838C919281892B82833F
:1002000008958C919181892B81838C918095928125
:10021000892382830895442329F0FC012281622BE3
:10022000628308956095FC012281622362830895B0
:100230000F931F93CF93DF938C0190936100809372
:100240006000FC01C181C33009F0C0E0F801808189
:10025000803109F4C82BF801D281D13009F0D0E007
:10026000F8018381883019F0873F49F009C0C82B15
:1002700041E060E886E390E00E940B0101C0C823E2
:10028000F8018481843021F08B3F19F4C82301C028
:10029000C82BF8018581803219F08F3D19F003C019
:1002A000C82B01C0C823F80186818F3719F0803828
:1002B00031F009C0C8238FB78F778FBF04C0C82B18
:1002C0008FB780688FBFDEB9C064CDB9DF91CF91A1
:1002D0001F910F910895611102C0779BFECF2FB13E
:1002E000FC0120830895CF93DF9300D0CDB7DEB714
:1002F0001A8280E18983BE016F5F7F4F86E390E0C1
:100300000E94E3001A8280E28983BE016F5F7F4F03
:1003100086E390E00E94E30082E08A8380E48983A0
:10032000BE016F5F7F4F86E390E00E94E3001A8278
:1003300080E88983BE016F5F7F4F86E390E00E9473
:10034000E3000F900F90DF91CF9108951F920F92CD
:100350000FB60F9211242F933F934F935F936F9398
:100360007F938F939F93AF93BF93EF93FF93E0910E
:100370006000F09161000780F085E02D0995FF9104
:10038000EF91BF91AF919F918F917F916F915F910D
:100390004F913F912F910F900FBE0F901F90189586
:1003A0000F931F93CF93DF9300D0CDB7DEB78C01AF
:1003B0009093630080936200FC0182819EEF980F0E
:1003C0009230F0F480B5806880BD90B58181892B32
:1003D00080BD80B5806480BD25813681C901A0E0E3
:1003E000B0E09C01AD01220F331F441F551F60E098
:1003F00072E18AE790E00E9459032150310951C00F
:10040000811126C080B5806880BD80B58F7B80BD9E
:100410008BB182608BB9F80125813681C901A0E0DA
:10042000B0E0880F991FAA1FBB1F880F991FAA1F32
:10043000BB1F9C01AD01220F331F441F551F60E0FD
:1004400072E18AE790E00E9459032150310929C0E6
:1004500080B5806880BD80B58F7B80BD8BB18D7F7E
:100460008BB9F80125813681C901A0E0B0E0880F81
:10047000991FAA1FBB1F880F991FAA1FBB1F9C0192
:10048000AD01220F331F441F551F220F331F441F7E
:10049000551F60E072E18AE790E00E945903215005
:1004A000310929B980B5806880BDF8018381813028
:1004B00069F028F08230A1F08330E1F021C08AB1E8
:1004C0008B7F8AB980B5897F80BD1AC08AB18B7F46
:1004D0008AB980B58B7F80BD80B5826080BD10C039
:1004E0008AB18B7F8AB980B58D7F80BD80B58460ED
:1004F00080BD06C08AB18B7F8AB980B5866080BD19
:1005000080B5806880BD90B5F8018481892B80BD5D
:1005100080B5806880BD90B58781892B80BD80853E
:10052000882329F19AB1892B8AB98FB780688FBF48
:1005300080858034A9F0803819F08032C1F408C079
:10054000F8018185928590936600809365000FC0C5
:10055000F80181859285909368008093670007C0B9
:10056000F8018185928590936A0080936900F80173
:1005700080819AB1892B8AB98281823061F481E0CD
:10058000898382E08A83BE016F5F7F4F86E390E0BC
:100590000E94E3000CC0833051F481E089838A8398
:1005A000BE016F5F7F4F86E390E00E94E3000F90F3
:1005B0000F90DF91CF911F910F910895611102C0AB
:1005C0005D9BFECF8CB908951F920F920FB60F92CC
:1005D00011242F933F934F935F936F937F938F9348
:1005E0009F93AF93BF93EF93FF93E0916500F091DA
:1005F00066000995FF91EF91BF91AF919F918F9107
:100600007F916F915F914F913F912F910F900FBE0E
:100610000F901F9018951F920F920FB60F921124F2
:100620002F933F934F935F936F937F938F939F93FA
:10063000AF93BF93EF93FF93E0916700F091680051
:100640000995FF91EF91BF91AF919F918F917F910C
:100650006F915F914F913F912F910F900FBE0F902F
:100660001F9018951F920F920FB60F9211242F937F
:100670003F934F935F936F937F938F939F93AF932A
:10068000BF93EF93FF93E0916900F0916A000995A1
:10069000FF91EF91BF91AF919F918F917F916F915A
:1006A0005F914F913F912F910F900FBE0F901F9030
:1006B0001895A1E21A2EAA1BBB1BFD010DC0AA1F93
:1006C000BB1FEE1FFF1FA217B307E407F50720F0BB
:1006D000A21BB30BE40BF50B661F771F881F991F36
:1006E0001A9469F760957095809590959B01AC017F
:0A06F000BD01CF010895F894FFCF7B
:00000001FF
